:020000040800F2
:10000000700A0020ED010008BD4700087F3B000892
:10001000B9470008250A0008474D00080000000005
:10002000000000000000000000000000294B000854
:10003000290A000800000000894800082B4B00082E
:10004000070200080702000807020008070200086C
:10005000070200080702000807020008070200085C
:10006000070200080702000807020008070200084C
:10007000070200080702000807020008070200083C
:10008000070200080000000007020008070200083D
:10009000070200080702000807020008070200081C
:1000A000070200080702000807020008070200080C
:1000B00007020008B54B0008C54B000807020008FE
:1000C00007020008070200080702000807020008EC
:1000D00007020008070200080702000807020008DC
:1000E00007020008070200080702000807020008CC
:1000F00007020008070200080702000800000000CD
:1001000000000000070200080000000007020008CD
:100110000702000800000000D54B00080702000895
:10012000070200080702000807020008070200088B
:10013000070200080000000000000000070200089D
:10014000070200080702000800000000000000008D
:10015000000000000000000000000000000000009F
:10016000000000000000000000000000070200087E
:10017000070200080000000000000000000000006E
:10018000000000000702000800000000000000005E
:10019000000000000000000000000000000000005F
:1001A000000000000000000007020008070200082D
:1001B000070200080702000807020008000000000C
:1001C000000000000702000800000000000000001E
:1001D0000702000807020008DFF80CD000F0CAFA96
:1001E0000048004745520008700A00200648804732
:1001F00006480047FEE7FEE7FEE7FEE7FEE7FEE70C
:10020000FEE7FEE7FEE7FEE7A14B0008D901000884
:10021000D2B201E000F8012B491EFBD27047002248
:10022000F6E710B513460A4604461946FFF7F0FFF5
:10023000204610BD2DE9FE4F804681EA0300C00F25
:100240000C46009021F0004123F00045B8EB02007D
:10025000A94105D24046214690461C460B4602461F
:1002600023F00040104347D0270DC7F30A00C3F323
:100270000A510290401A019040286BDAC3F3130030
:1002800040F4801B0098924620B10023D2EB030A71
:1002900063EB0B0B01985946C0F14002504600F049
:1002A000A4F906460D4650465946019A00F0BCF99D
:1002B00010EB08006141002487EA115284EAE773D9
:1002C0001A4340D0009A62B3019A012A4FEA0752BA
:1002D00015DC001B61EB02014FF0004202EA0752FD
:1002E000CDE90042001C41F5801132462B4600F05A
:1002F000F3F903B0BDE8F08F40462146F9E7001B53
:1003000061EB0201001C41F5801300185B412018CD
:10031000A2F5001747EB030140EAD570B6196D410D
:1003200011E06D084FEA360645EAC0754FEA0752FC
:10033000001B61EB0201001C41F5801149084FEAE6
:1003400030000019514132462B4603B0BDE8F04F52
:1003500000F0B3B90098012240000023D0EB020264
:1003600063EBE073009821464FEAE074B8EB0000BD
:1003700061EB0401E9E783F000435BE781F00041B2
:1003800058E72DE9FE4F81EA030404F0004421F010
:10039000004100944FF0000B23F0004350EA0104A9
:1003A0005ED052EA03045BD0C3F30A54C1F30A558A
:1003B0002C44A4F2F3340194A0FB0254C1F31301C2
:1003C00041F48011C3F3130343F4801301FB02448F
:1003D00000FB034E840A970A44EA815447EA835794
:1003E000A4FB076802958D0A05FB07854FEA932C4D
:1003F00004FB0C542705029D4FEA065847EA1637BE
:10040000B5EB08056EEB070C870E920E47EA8117D5
:1004100042EA8312A7FB0201B6EB0B0164EB000476
:100420002B0D43EA0C335E1844EB1C50DA46514660
:10043000E7FB0201C5F313044FEA0B3343EA1453FD
:100440004FEA0432019C43EA0603A4F10C0402942F
:10045000009CCDE900B400F03FF903B0BDE8F08F97
:1004600000200146F9E72DE9F04D81EA030404F08C
:10047000004B21F0004514464FF0000A23F00041E4
:1004800050EA050220D054EA01021DD0C5F30A57F4
:100490000246C5F31303C1F31300C1F30A5640F437
:1004A000801543F48013A7EB0608101BD64608F20C
:1004B000FD3873EB050002D308F1010801E0921842
:1004C0005B41B8F1000F03DA00200146BDE8F08D72
:1004D00000204FF48011064684460EE0171B73EB94
:1004E000050705D3121B63EB050306434CEA010C19
:1004F00049084FEA300092185B4150EA0107EDD1FC
:1005000052EA030012D082EA040083EA050108439C
:1005100005D0101BAB4106D20122002306E00022C9
:100520004FF0004302E06FF0010253101AEB060097
:100530004CEB085110EB0A0041EB0B01BDE8F04D0C
:1005400000F0BBB80EB5C10F80EAE0700844CA07DE
:10055000002140F233438DE80E000A460B4600F0BE
:10056000BBF803B000BD0EB540F23341029100214B
:10057000CDE900110A460B4600F0AEF803B000BD0D
:10058000C1F30A5210B5C1F3130140F2FF3341F435
:1005900080119A4201DA002010BD40F233439A42A2
:1005A000A2F2334203DC524200F02EF810BD90401C
:1005B00010BD01F0004330B421F0004150EA0102C7
:1005C00006D00A0DA2F56072C1F31301002A02DC05
:1005D00030BC00207047440F44EAC104C100E01859
:1005E00030BC00EBC25000F031B8202A04DB203AC6
:1005F00000FA02F1002070479140C2F1200320FA76
:1006000003F3194390407047202A04DB203A21FA73
:1006100002F00021704721FA02F3D040C2F120021B
:100620009140084319467047202A06DBCB17203A31
:1006300041FA02F043EAE07306E041FA02F3D040E7
:10064000C2F1200291400843194670470029A8BF13
:100650007047401C490008BF20F00100704710B4EB
:10066000B0FA80FC00FA0CF050EA010404BF10BCA0
:10067000704749B1CCF1200421FA04F411FA0CF1CD
:1006800018BF012121430843A3EB0C01CB1D4FEA06
:1006900000614FEA102042BF002010BC704700EB01
:1006A000C35010440029A4BF10BC7047401C49002F
:1006B00008BF20F0010010BC704710B5141E73F184
:1006C000000408DA401C41F1000192185B411A4312
:1006D00001D120F0010010BD2DE9F04D92469B465E
:1006E00011B1B1FA81F202E0B0FA80F22032904604
:1006F000FFF77BFF04460F4640EA0A0041EA0B0180
:1007000053465A46084313D0114653EA010019D004
:10071000C8F140025046FFF777FF05460E465046A7
:1007200059464246FFF761FF084305D0012004E027
:1007300020463946BDE8F08D0020054346EAE076C4
:100740002C4337430A986305E40AA0EB0800002213
:10075000FD0A44EA47540A3002D500200146E9E781
:10076000010510196941DDE9084500196941BDE835
:10077000F04DA2E7064C074D06E0E06840F00103AB
:1007800094E8070098471034AC42F6D3FFF728FDF1
:1007900068C6000888C6000870B58C1810F8015BA0
:1007A00015F0070301D110F8013B2A1106D110F80A
:1007B000012B03E010F8016B01F8016B5B1EF9D10E
:1007C0002B0705D40023521E0DD401F8013BFAE794
:1007D00010F8013BCB1A921C03E013F8015B01F8FF
:1007E000015B521EF9D5A142D8D3002070BD000094
:1007F0002DE9F05F044688464FF00009474620681F
:1008000003F0EBFB8246206803F0CEFB8346BAF18F
:10081000000F02D1BBF1000F72D02068C06800F059
:10082000007000B3607F01281DD1207F01281AD1FC
:1008300001270FE0334881450AD3E06D40F01000F6
:10084000E065206E40F0010020660120BDE8F09FC9
:1008500009F1010920680068C0F380100028E9D080
:10086000402021680860022F10D0206803F0B5FBFB
:1008700060B1206803F09DFB40B920688168224A7E
:10088000114041F01001816000BF00BF012F10D066
:10089000206803F089FB60B1206803F08AFB40B94F
:1008A00020688168184A114041F02001816000BF32
:1008B00000BF022F03D0032F03D10C2503E008252E
:1008C00001E0042500BF00BF01F0FCFA064612E07B
:1008D00001F0F8FA801B05280DD9206880682840AF
:1008E00048B1E06D40F01000E065206E40F001007E
:1008F00020660120AAE72068806828400028E7D108
:100900000020A3E7000040A3C0FFFF7F70B50446AE
:10091000206803F04EFB0646206803F04FFB98B3B7
:1009200096BB2068806800F00D0001280AD120687D
:1009300081681A4A1140891C816000BF0320216828
:10094000086009E0E06D40F01000E065206E40F0C6
:1009500001002066012070BD01F0B4FA054614E0E4
:1009600001F0B0FA401B02280FD92068806800F01F
:10097000010050B1E06D40F01000E065206E40F0E5
:10098000010020660120E6E705E02068806800F0AD
:1009900001000028E4D10020DDE70000C0FFFF7F58
:1009A00070B50446206803F009FB002836D12068A2
:1009B00080681B49084048B1E06D40F01000E065D8
:1009C000206E40F001002066012070BD206803F019
:1009D000D5FA01F077FA05461AE0206803F0EEFA3E
:1009E00010B9206803F0CAFA01F06CFA401B022823
:1009F0000ED92068006800F0010048B9E06D40F0B1
:100A00001000E065206E40F0010020660120DCE768
:100A10002068006800F001000028DED00020D4E744
:100A20003F00008000BFFEE7704772B600BFFEE7E0
:100A300010B52DED088B00247F21194800F094F8A3
:100A4000174800F059FE6421154800F0B9FD18B9A7
:100A5000134800F0EBFB04462046FFF784FD41EC11
:100A60001B0B9FED100B53EC102BFFF78AFC41EC96
:100A70001A0B9FED0E0B53EC102BFFF7F4FC41EC1F
:100A8000190B9FED0C0B53EC102BFFF7ECFC41EC1A
:100A9000180BFFF78EFD00EE100ABDEC088B10BDA1
:100AA0008004002079E9263108AC0A4000000000EB
:100AB0000000B040000000000000184010B52DED0F
:100AC0000A8B00247F211F4800F04EF81D4800F0DB
:100AD00013FE01211B4800F073FD18B9194800F0FE
:100AE000A5FB0446174800F095FE2046FFF73BFDA6
:100AF00041EC1C0B9FED140B53EC102BFFF741FC4A
:100B000041EC1B0B9FED120B53EC102BFFF739FC44
:100B100041EC1A0B9FED100B53EC102BFFF7A3FCCD
:100B200041EC190B9FED0E0B53EC102BFFF79BFCC8
:100B300041EC180BFFF73DFD00EE100ABDEC0A8BEF
:100B400010BD00001404002079E9263108AC0A40E9
:100B50009A99999999E953400000000000002440B7
:100B6000000000000000B040F8B504460D4600202B
:100B7000009000BF94F85800012801D10220F8BD70
:100B8000012084F8580000BF2046FFF7BFFE06464C
:100B90008EBBE06D20F4885040F00200E0652068D4
:100BA00081681B4A114005F0804242F00042114327
:100BB000816000BF13E00098401C00901549009828
:100BC00088420CD3E06D20F0020040F01000E06598
:100BD00000BF002084F8580000BF0120CFE7206844
:100BE0008168C90F0029E6D1E06D20F0020040F0D5
:100BF0000100E06504E0FFE7E06D40F01000E06513
:100C000000BF002084F8580000BF3046B7E700005E
:100C1000C0FFFF3F02DE04002DE9F0439BB0044615
:100C20000E464FF00008306800B100BF00BF94F8D6
:100C30005800012803D102201BB0BDE8F083012039
:100C400084F8580000BF0020179018902068B0F179
:100C5000A04F02D13148009001E0002000900098A0
:100C600050B9E06D40F02000E06500BF002084F83E
:100C7000580000BF0120DFE7009803F0B3F90746F2
:100C8000206803F0AFF9D8BBD7BB254D306800B35F
:100C900094F83800716841EA4030A96821F4604155
:100CA0000843A8604FF0A04003F08DF981461B482F
:100CB00003F089F949EA0009B9F1000F27D1B168B9
:100CC00030680843A96840F61F7291430843A86042
:100CD0001DE0A86820F46040A8604FF0A04003F039
:100CE00072F981460D4803F06EF949EA0009B9F13D
:100CF000000F0CD1A86840F61F718843A86006E079
:100D0000FFE7E06D40F02000E0654FF0010800BF14
:100D1000002084F8580000BF40468DE700010050D5
:100D2000000300502DE9F84F05460C464FF0000A2D
:100D300000200090F749E068884200D000E000BF42
:100D400000BF95F85800012802D10220BDE8F88FB5
:100D5000012085F8580000BF286803F03EF90028FC
:100D60007DD12968D4E9002001F1300CC0F3012BBA
:100D70000CEB8B03D3F800C000F01F0E4FF01F0BDD
:100D80000BFA0EFB2CEA0B0C00F01F0BC2F3846E67
:100D90000EFA0BFE4CEA0E0CC3F800C000BF286828
:100DA00003F01BF98146286803F0FEF88046B9F18C
:100DB000000F64D1B8F1000FFBD1A068B0F1004F73
:100DC0000AD121680022286803F022F94FF000417F
:100DD000286803F042F908E0A2682168286803F057
:100DE00017F90021286803F038F960692968C96893
:100DF000C1F3C101490000FA01F7206904283FD07E
:100E000028682268216900F1600C0CEB8103D3F89B
:100E100000C0DFF804B30CEA0B0C02F0F84B4BF007
:100E2000004B4BEA070B4CEA0B0CC3F800C000BFA9
:100E30002868A269216900F1600C0CEB8103D3F8EA
:100E400000C02CF0807C4CEA020CC3F800C000BF4C
:100E50002868227F2169012A02D1520601E0C5E1FA
:100E60000022134600F1600C0CEB8102D2F800C0A6
:100E70002CF0007C4CEA030CC2F800C000BFA7E0D5
:100E80000021286803F087F8C0F3120030B9002170
:100E9000286803F080F8C0F3846007E00021286828
:100EA00003F079F890FAA0F0B0FA80F02168C1F36D
:100EB000120119B92168C1F3846104E0216891FA33
:100EC000A1F1B1FA81F1884204D1002211462868CB
:100ED00003F0B8F80121286803F05DF8C0F31200B0
:100EE00030B90121286803F056F8C0F3846007E0A8
:100EF0000121286803F04FF890FAA0F0B0FA80F0D2
:100F00002168C1F3120119B92168C1F3846104E0B9
:100F1000216891FAA1F1B1FA81F1884204D100224D
:100F20000121286803F08EF80221286803F033F8C5
:100F3000C0F3120030B90221286803F02CF8C0F386
:100F4000846007E00221286803F025F890FAA0F0F9
:100F5000B0FA80F02168C1F3120119B92168C1F318
:100F6000846104E0216891FAA1F1B1FA81F188422B
:100F700004D100220221286803F064F803212868C4
:100F800003F009F8C0F3120030B90321286803F018
:100F900002F8C0F3846007E00321286802F0FBFF39
:100FA00090FAA0F0B0FA80F02168C1F3120119B9EB
:100FB0002168C1F3846104E0216891FAA1F1B1FADA
:100FC00081F1884204D100220321286803F03AF815
:100FD000286802F0F3FF002874D12868E2682168CD
:100FE0004C4B9A4208D1D0F8B030C1F3120C43EA0E
:100FF0000C03C0F8B03007E0D0F8B030C1F3120CE9
:1010000023EA0C03C0F8B03000BF4249E0688842D0
:1010100058D12368C3F312031BB92368C3F3846355
:1010200004E0236893FAA3F3B3FA83F35B1C03F0A1
:101030001F03092B3ED82368C3F312031BB923688F
:10104000C3F3846304E0236893FAA3F3B3FA83F34E
:101050005B1C03F01F034FF0010C0CFA03FC236828
:10106000C3F312031BB92368C3F3846304E023684A
:1010700093FAA3F3B3FA83F35B1C03F01F034CEA68
:10108000836C2368C3F312031BB92368C3F384631F
:1010900004E0236893FAA3F3B3FA83F35B1C03F031
:1010A0001F0303EB43034FF0000B4BEA03534CEADF
:1010B000030344E02368C3F3120323B92368C3F393
:1010C000846305E040E0236893FAA3F3B3FA83F363
:1010D0005B1C03F01F034FF0010C0CFA03FC2368A8
:1010E000C3F312031BB92368C3F3846304E02368CA
:1010F00093FAA3F3B3FA83F35B1C03F01F034CEAE8
:10110000836C2368C3F3120343B92368C3F3846376
:1011100009E0000000007F4000F0FF03236893FA1D
:10112000A3F3B3FA83F35B1C03F01F030A3B03EB47
:1011300043034FF0007B4BEA03534CEA0303194689
:10114000A268286802F064FF2F492068084050B365
:1011500000BF2E48806800F0E07600BF2C49206870
:10116000884203D02B49206888421DD106F4000034
:10117000D0B92868B0F1A04F3ED146F40001234811
:1011800002F05AFF244800682449B0FBF1F0401CEB
:1011900000EB40008000009002E00098401E0090AC
:1011A00000980028F9D127E01D49206888420CD119
:1011B00006F0807048B91B49286888421CD046F068
:1011C0008071124802F038FF16E017492068884203
:1011D00012D106F4800078B91249286888420BD0F1
:1011E00046F48001094802F027FF05E0E86D40F071
:1011F0002000E8654FF0010A00BF002085F8580084
:1012000000BF5046A2E50000000008800003005027
:10121000000021C31000C090B8030020400D03005F
:10122000000052C700010050000084CB014608684E
:10123000006C70472DE9F84F04464FF0000900207C
:10124000009014B90120BDE8F88F606920B194F8CE
:101250002400012800D100BFE06D30B9204600F025
:101260001DF90020206684F8580020688168C1F3C9
:10127000407131B120688168814A1140816000BFAE
:1012800000BF206802F0A4FEB0B9206881687D4AE2
:10129000114041F08051816000BF7B4800687B496C
:1012A000B0FBF1F0401C4000009002E00098401EAE
:1012B000009000980028F9D1206802F089FE48B912
:1012C000E06D40F01000E065206E40F00100206607
:1012D0004FF00109206802F080FE0646E06D00F044
:1012E000100000287CD1002EFCD1E06D20F480702D
:1012F00040F00200E065206802F060FEB0B94FF0F7
:10130000A04002F05BFE8246614802F057FE4AEAC6
:10131000000ABAF1000F09D160685E49896821F4BA
:101320007C1101435B4A916000BF00BF607FE16BAD
:1013300041EA4030E1680843A168084394F824106A
:1013400040EA014594F82400012803D1208D401E75
:1013500045EA4045E06A28B1A08D00F47870216B21
:10136000084305432068C0684B490840284321686A
:10137000C8602068006920F04060616B0843216804
:101380000861206802F029FE8046206802F00CFE09
:101390000746B8F1000F50D1F7BB207F002141EA8A
:1013A000803194F8380041EA40052068C06844F272
:1013B0000201884328432168C860206988B12068F9
:1013C000006940F48030216808612068D0F8C000CE
:1013D0006FF30D00216908432168C1F8C0000EE0D9
:1013E00045E02068006920F48030216808612068A9
:1013F000D0F8C0006FF30D002168C1F8C00094F868
:101400004000012813D1606C40F00101A06C08433A
:10141000E16C0843216D00E00FE008432168096991
:1014200040F2FC72914308432168086105E020689E
:10143000006920F00100216808616069012809D174
:101440002068006B20F00F00216A491E08432168C4
:10145000086305E02068006B20F00F002168086336
:10146000E06D20F0020040F00100E06505E0E06D75
:1014700040F01000E0654FF001094846E3E6000047
:10148000C0FFFF5FC0FFFF7FB8030020400D0300D7
:1014900000010050000300500740F0FF10B598B065
:1014A0000446142113A8FEF7BAFE442102A8FEF751
:1014B000B6FE2068B0F1A04F3BD14FF4004002903F
:1014C0008003119002A800F069FE08B1FFF7ADFAA1
:1014D00038480068401C3749086008460068012801
:1014E0000DD100BF3448C06C40F400503249C8648C
:1014F0000846C06C00F40050019000BF00BF00BF60
:101500002D48C06C40F001002B49C8640846C06CEF
:1015100000F00100019000BF00BF012013900320E4
:1015200014900020159013A94FF0904000F0CCFBD0
:101530003DE022492068884239D1C00102908003F1
:10154000119002A800F02AFE08B1FFF76EFA1948C0
:101550000068401C174908600846006801280DD142
:1015600000BF1548C06C40F400501349C8640846D9
:10157000C06C00F40050019000BF00BF00BF0E48D7
:10158000C06C40F001000C49C8640846C06C00F013
:101590000100019000BF00BF0220139003201490AF
:1015A0000020159013A94FF0904000F08DFB18B06B
:1015B00010BD00004000002000100240000100505B
:1015C0002DE9F04704460F46494802F0DFFC064685
:1015D000A069082801D108251FE01EB1052E01D001
:1015E000092E0DD12068C06800F0010030B1E06D17
:1015F00040F02000E0650120BDE8F08704250CE004
:1016000000BF3B48806800F4604028B1E06D40F0C6
:101610002000E0650120EFE7042500F053FC804640
:1016200017E0781CA8B100F04DFCA0EB0800B84210
:1016300000D877B920680068284050B9E06D40F0C4
:101640000400E06500BF002084F8580000BF0320BC
:10165000D2E72068006828400028E2D0E06D40F41E
:101660000070E065206802F0C2FC98B1607F88B924
:101670002068006800F0080008280BD1E06D20F415
:101680008070E065E06D00F4805018B9E06D40F0C6
:101690000100E06517492068884202D14FF0A04060
:1016A00000E020682168884204D01EB1052E01D0D8
:1016B000092E03D12068D0F80C900AE00D4920686B
:1016C000884202D14FF0A04000E020688246DAF85C
:1016D0000C90082D03D108202168086005E009F46A
:1016E000804010B90C2021680860002084E70000C9
:1016F00000030050000100502DE9F041044643482A
:1017000002F044FC0646206802F067FC00287AD10B
:1017100000BF94F85800012802D10220BDE8F081F2
:10172000012084F8580000BF2046FFF739F905462C
:10173000002D63D1E06D40F60161884340F4807074
:10174000E06533492068884202D14FF0A04000E0B4
:1017500020682168884200D01EB9E06D20F4801016
:10176000E065E06D00F48050B0F5805F04D1206E3C
:1017700020F00600206601E0002020661C20216881
:10178000086000BF002084F8580000BF204920688E
:10179000884202D14FF0A04000E0206821688842D2
:1017A00004D01EB1052E01D0092E0ED12068C068CC
:1017B00000F0007028B1E06D20F4005040F480503B
:1017C000E065206802F01CFC1EE0E06D40F4801033
:1017D000E0650F492068884202D14FF0A04000E048
:1017E00020680746F86800F0007068B1E06D20F4EA
:1017F000005040F48050E06506E004E000BF0020A7
:1018000084F8580000E00225284687E700030050CE
:101810000001005070B5044600BF94F8580001283C
:1018200001D1022070BD012084F8580000BF0321BF
:101830002046FEF7DDFF054655B92046FFF766F85E
:1018400005462DB9E06D20F4885040F00100E065B8
:1018500000BF002084F8580000BF2846E2E7704728
:101860002DE9F05F04460D461646E869012800D1CF
:1018700000BFA868042800D100BF00BF607901281C
:1018800002D10220BDE8F09F0120607100BF02205C
:101890002071A868042855D100F014FB8246D6B9FF
:1018A0000CE000F00FFBA0EB0A00012806D920692C
:1018B00040F00800206103202071E3E72068406BBE
:1018C00000F400400028ECD1012000F0E9F9686A3A
:1018D0002168086419E00CE000F0F4FAA0EB0A00BB
:1018E000012806D9206940F00800206103202071FA
:1018F000C8E72068406B00F000400028ECD10120D0
:1019000000F0CEF9686A216848642068806C06F0AF
:10191000100240F2FF319140884306F01002A96A9C
:1019200091400843216888642068C06C06F010026A
:10193000FF219140884306F01002E96A9140084374
:101940002168C864E86901280FD12068876B06F018
:1019500010011F2088408743D5F8208006F0100032
:1019600008FA00F00743206887632068C76B06F019
:101970001001072088408743A869012802D14FF051
:1019800000090CE0A869022802D14FF0010906E025
:10199000686910B94FF0010901E04FF00009696969
:1019A000A868084340EA090806F010014FF4807067
:1019B000884087432879012801D1000200E00020F7
:1019C00040EA080806F010014FF400708840874391
:1019D0006879012801D1400200E0002040EA0808AF
:1019E00027F44047286802280FD100F0A1FE834663
:1019F0002C498B4502D947F4004708E02A48834523
:101A000002D947F4804702E001E02868074306F066
:101A1000100108FA01F007432068C76320680068D6
:101A200006F010024FF4804191408843216808601D
:101A30002068076806F0100140F6FE708840874372
:101A4000D5F80C8006F0100108FA01F00743206871
:101A500007602068006806F01002C02191408843AA
:101A600021680860287BC0F38308287CC0F38300CA
:101A700048EA00282068006E06F0100240F60F7158
:101A80009140884306F0100108FA01F108432168EB
:101A900008660120207100BF0020607100BF00BFF8
:101AA000F0E600000068890900B4C404704710B56E
:101AB00004462068006800F40050B0F5005F19D1BA
:101AC0002068406B00F40050B0F5005F12D1042094
:101AD0002071206940F0010020614FF4005021681E
:101AE00048632068006820F4805021680860204620
:101AF000FFF7DCFF2068006800F00050B0F1005FE5
:101B000019D12068406B00F00050B0F1005F12D195
:101B100004202071206940F0020020614FF0005045
:101B2000216848632068006820F0805021680860C0
:101B30002046FFF794FE10BD10B504460CB90120F5
:101B400010BD207920B900206071204600F008F80F
:101B50000220207100202061012020710020EFE789
:101B600010B586B00446142101A8FEF758FB1A49A7
:101B7000206888422DD100BF1848C06C40F48030E6
:101B80001649C8640846C06C00F48030009000BF5D
:101B900000BF00BF0846C06C40F00100C8640846A2
:101BA000C06C00F00100009000BF00BF3020019029
:101BB000032002900020039001A94FF0904000F014
:101BC00083F800221146362000F000FA362000F09B
:101BD000E9F906B010BD00000008005000100240F6
:101BE00078B50446002000902068C06B01F0100614
:101BF0004FF48075B540284000B900BF20680090C0
:101C000029B902F10800009D2844009004E002F187
:101C10001400009D2844009000980360002078BDC7
:101C200070B504460D4600BF6079012801D102203D
:101C300070BD0120607100BF022020712068006823
:101C400005F010020121914008432168086001203D
:101C500000F026F865B92068006800F03E00022810
:101C600016D12068406840F00100216848600FE00C
:101C70002068006800F4781105F0100202209040FE
:101C8000814205D12068406840F002002168486028
:101C90000120207100BF0020607100BF00BFC7E7B6
:101CA00070B5044600F00EF906462546681C10B1D2
:101CB00004480068054400BF00F004F9801BA842F6
:101CC000FAD370BDB403002078B502460B4600215C
:101CD000CAE001268E401D6805EA0604002C73D078
:101CE0001D7905F00305012D04D01D7905F00305CC
:101CF000022D13D190684E000325B540A8434E0035
:101D0000DD68B54028439060506801258D40A843A8
:101D10001D79C5F300158D40284350601D7905F0ED
:101D20000305032D09D0D0684E000325B540A84314
:101D30004E009D68B5402843D0601D7905F003052D
:101D4000022D13D1CE0802F1200555F826004D07CB
:101D5000EE0E0F25B540A8434E07F60E1D69B5409F
:101D60002843CE0802F1200545F8260010684E00F1
:101D70000325B540A8431D7905F003054E00B54085
:101D8000284310605D6805F44035002D6BD000BF1E
:101D9000384D2D6E45F00105364E356635462D6EB3
:101DA00005F00105009500BF00BF4FEAB6358E086B
:101DB00055F826008D072E0F0F25B540A843B2F128
:101DC000904F02D100251AE04DE02B4DAA4201D1DF
:101DD000012514E0294DAA4201D102250FE0284D2A
:101DE000AA4201D103250AE0264DAA4201D10425C9
:101DF00005E0254DAA4201D1052500E006258E0704
:101E0000360FB5402843214D8E0845F82600204D59
:101E10002868A0435D6805F4801505B120431C4D7A
:101E200028602D1D2868A0435D6805F4001505B1E4
:101E30002043174D2D1D2860154D2D1F2868A043E8
:101E40005D6805F4003505B12043114D2D1F286054
:101E50002D1F2868A0435D6805F4803505B1204337
:101E60000B4D083D2860491C1D68CD40002D7FF4B6
:101E700030AF78BD00100240000400480008004860
:101E8000000C004800100048001400480800014001
:101E900008040140024613690B400BB1012000E029
:101EA0000020704710B5426921EA020302EA0104EA
:101EB00043EA0443836110BD0AB1816100E081629D
:101EC000704700000148006870470000AC03002024
:101ED00003480068034909680844014908607047DD
:101EE000AC030020B403002010B50024032000F050
:101EF000ABF8002000F008F808B1012401E000F080
:101F00002FF8204610BD000070B50446002511488A
:101F10000068D8B10F4800684FF47A71B1FBF0F057
:101F20000D490968B1FBF0F6304601F0B6F858B932
:101F3000102C07D200222146501E00F047F8074817
:101F4000046004E0012502E0012500E001252846A7
:101F500070BD0000B4030020B8030020B0030020CF
:101F600008B500BF0E48006E40F001000C4908663D
:101F70000846006E00F00100009000BF00BF00BFE7
:101F80000846806D40F0805088650846806D00F0FE
:101F90008050009000BF00BF00F0F6F808BD0000C0
:101FA000001002400146084600280DDB00BF00BFBC
:101FB00000F01F0301229A4043099B0003F1E02334
:101FC000C3F8002100BF00BF00BF70472DE9F05FDC
:101FD00080460D46164602F0B9FE074639462A46A7
:101FE000334601F00700C0F1070ABAF1040F02D925
:101FF0004FF0040A01E0C0F1070AD14600F1040ADB
:10200000BAF1070F02D24FF0000A01E0A0F1030A73
:10201000D4464FF0010A0AFA09FAAAF1010A0AEABB
:10202000020A0AFA0CFA4FF0010B0BFA0CFBABF1A7
:10203000010B0BEA030B4AEA0B042146404602F06F
:102040008DFEBDE8F09F000000BF00F00702064BC8
:1020500019684FF6FF031940044B0B4343EA022172
:10206000014B196000BF70470CED00E00000FA055D
:1020700002468ABB4148006800F4C060B0F5806F3A
:102080002BD13E488030006820F480703B4BC3F871
:1020900080001846006820F4C06040F400701860AA
:1020A0003748006832235843364BB0FBF3F0411CED
:1020B00000E0491E3148406900F48060B0F5806F4F
:1020C00001D10029F5D12D48406900F48060B0F5B8
:1020D000806F51D10320704708E0284880300068A5
:1020E00020F48070254BC3F8800045E0B2F5007FF6
:1020F0003AD12248006800F4C060B0F5806F2AD160
:102100001E488030006840F480701C4BC3F880008B
:102110001846006820F4C06040F400701860184849
:10212000006832235843174BB0FBF3F0411C00E02A
:10213000491E1248406900F48060B0F5806F01D1FB
:102140000029F5D10D48406900F48060B0F5806F3A
:1021500012D10320BFE709488030006840F4807046
:10216000064BC3F8800007E00448006820F4C06014
:1021700040F48060014B18600020ACE70070004024
:10218000B803002040420F000348806840F48040BC
:102190000149886070470000007000402DE9F84355
:1021A00004460027B846206800F40020B0F5002F50
:1021B00073D1B946D348806D00F0805078B900BF24
:1021C000D048806D40F08050CE4988650846806DCB
:1021D00000F08050009000BF00BF4FF00109CA48D6
:1021E000006840F48070C8490860FFF76BFE06463F
:1021F00006E0FFF767FE801B022801D9032705E0F0
:10220000C148006800F480700028F2D000BF002FA1
:1022100046D1BC489030006800F44075CDB1206CC8
:10222000A84216D0B7489030006820F44075B548F1
:10223000D0F8900040F48030B249C1F890000846D0
:10224000D0F8900020F48030C1F890000846C0F823
:10225000905005F00100A0B1FFF734FE064608E0FB
:10226000FFF730FE801B41F28831884201D90327F5
:1022700006E0A4489030006800F002000028EFD08B
:1022800000BF5FB99F489030006820F44070216C17
:1022900008439C49C1F8900003E00CE0B84600E018
:1022A000B846B9F1010F05D19648806D20F08050F5
:1022B0009449886500BF207800F0010048B191483A
:1022C0008830006820F00300616808438D49C1F838
:1022D0008800207800F00200022809D1894888305F
:1022E000006820F00C00A16808438649C1F8880006
:1022F000207800F00400042809D182488830006862
:1023000020F03000E16808437E49C1F88800207859
:1023100000F00800082809D17A488830006820F0C9
:10232000C000216908437749C1F88800207800F08F
:102330002000202809D173488830006820F44060CC
:10234000616908436F49C1F88800207800F04000B7
:10235000402809D16B488830006820F44050A169BA
:1023600008436849C1F88800207800F08000802880
:1023700009D164488830006820F44040E16908438E
:102380006049C1F88800208800F48070B0F5807F33
:1023900009D15C488830006820F44030216A084345
:1023A0005849C1F88800208800F40070B0F5007F1B
:1023B00009D154488830006820F44020616A0843FD
:1023C0005049C1F88800208800F48060B0F5806F23
:1023D00013D14C488830006820F44010A16A0843AB
:1023E000484988310860A06AB0F5801F05D145488A
:1023F000C06840F480104349C860208800F4006041
:10240000B0F5006F13D13F488830006820F44000D9
:10241000E16A08433B4988310860E06AB0F5800F03
:1024200005D13848C06840F480103649C86020881B
:1024300000F48050B0F5805F13D1324888300068D6
:1024400020F04070216B08432E4988310860206BD2
:10245000B0F1807F05D12B48C06840F48010294935
:10246000C860208800F40050B0F5005F13D1254803
:102470008830006820F04060616B08432149883152
:102480000860606BB0F1006F05D11E48C06840F471
:1024900080101C49C860208800F48040B0F5804F4F
:1024A00013D118488830006820F04060A16B0843C1
:1024B000144988310860A06BB0F1006F05D1114854
:1024C000C06840F480100F49C860208800F40040C4
:1024D000B0F5004F13D10B488830006820F0405011
:1024E000E16B0843074988310860E06BB0F1805F19
:1024F00005D10448C06840F480300249C8604046B5
:10250000BDE8F88300100240007000402DE9F04162
:1025100004460D464FF0000814B90120BDE8F081D3
:102520007D48006800F00F00A8420ED27A4800688B
:1025300020F00F002843784908600846006800F042
:102540000F00A84201D00120E8E7207800F0010048
:10255000002864D06068032823D17048006800F028
:10256000007008B90120D9E702F090F906466C48DE
:10257000864237D96948806800F0F00030B1207891
:1025800000F0020002282DD1A06858BB6348806883
:1025900020F0F00040F08000604988604FF0800833
:1025A00020E06068022806D15C48006800F4003032
:1025B00040B90120B2E75948006800F4806008B9CA
:1025C0000120ABE700F0BAF806465548864209D923
:1025D0005248806820F0F00040F080004F49886049
:1025E0004FF080084D48806820F003006168084380
:1025F0004A498860FFF766FC074608E0FFF762FC7F
:10260000C01B41F28831884201D9032086E7434844
:10261000806800F00C006168B0EB810FEED120788B
:1026200000F00200022820D1207800F004000428E5
:1026300005D13A48806840F4E060384988602078E5
:1026400000F00800082807D13448806820F4605062
:1026500040F4E060314988603048806820F0F00044
:10266000A16808432D49886008E0B8F1800F05D1C2
:102670002A48806820F0F0002849886026480068D1
:1026800000F00F00A84219D92348006820F00F007D
:10269000284321490860FFF715FC074608E0FFF7CB
:1026A00011FCC01B41F28831884201D9032035E773
:1026B0001948006800F00F00A842F0D1207800F01F
:1026C0000400042807D11548806820F4E060E16820
:1026D000084312498860207800F00800082808D1D3
:1026E0000E48806820F46050216940EAC1000B491F
:1026F000886000F023F809498968C1F30311094A89
:10270000515C01F01F01C840074908600748006894
:10271000FFF7FAFB02E70000002002400010024031
:1027200000B4C40450C60008B8030020B003002061
:102730000148006870470000B803002070B5224DC2
:10274000AD6805F00C05042D01D120483AE01E4D7E
:10275000AD6805F00C05082D01D11D4832E01A4D79
:10276000AD6805F00C050C2D2BD1174DED6805F06B
:102770000304154DED68C5F303156A1C022C0CD03B
:10278000032C09D1124DB5FBF2F50F4EF668C6F3D6
:10279000062605FB06F10AE000BF0C4DB5FBF2F57D
:1027A000094EF668C6F3062605FB06F100BF00BF1A
:1027B000054DED68C5F341656D1C6B00B1FBF3F091
:1027C00000E0002070BD0000001002400024F40072
:1027D00000127A002DE9F843044614B90120BDE83F
:1027E000F883207800F00100002865D0FC4880685C
:1027F00000F00C07FA48C06800F003060C2F01D166
:10280000032E01D0082F0AD1F548006800F40030EB
:10281000002851D0606800284ED10120DFE700BFBA
:102820006068B0F5803F06D1ED48006840F4803024
:10283000EB4908601AE06068B0F5A02F0BD1E848BA
:10284000006840F48020E64908600846006840F4CB
:10285000803008600AE0E248006820F48030E049F7
:1028600008600846006820F48020086000BF6068A7
:1028700088B1FFF727FB054606E0FFF723FB401B67
:10288000642801D90320AAE7D548006800F4003085
:102890000028F2D010E0FFF715FB054606E0FFF731
:1028A00011FB401B642801D9032098E7CC4800683D
:1028B00000F400300028F2D1207800F00200022855
:1028C00060D1C748806800F00C07C548C06800F0B8
:1028D00003060C2F01D1022E01D0042F18D1C048BD
:1028E000006800F4806018B1E06808B9012076E75C
:1028F000BB48406820F0FE40217C40EA0160B849B6
:102900004860B8480068FFF7FFFA18B3012066E78F
:10291000E06800B3B248006840F48070B0490860D5
:10292000FFF7D0FA054606E0FFF7CCFA401B022875
:1029300001D9032053E7AA48006800F4806000280A
:10294000F2D0A748406820F0FE40217C40EA0160B8
:10295000A349486016E0A248006820F48070A049AE
:102960000860FFF7AFFA054606E0FFF7ABFA401B39
:10297000022801D9032032E79948006800F48060FA
:102980000028F2D1207800F00800082836D16069CC
:10299000D0B193489430006840F001009049C1F8EC
:1029A0009400FFF78FFA054606E0FFF78BFA401B0D
:1029B000022801D9032012E789489430006800F00A
:1029C00002000028F1D019E085489430006820F01A
:1029D00001008349C1F89400FFF774FA054606E048
:1029E000FFF770FA401B022801D90320F7E67C4864
:1029F0009430006800F002000028F1D1207800F047
:102A00000400042872D14FF000087548806D012140
:102A100021EA107078B100BF7148806D40F080509D
:102A20006F4988650846806D00F08050009000BFB7
:102A300000BF4FF001086C48006800F48070B0B926
:102A40006948006840F4807067490860FFF73AFA07
:102A5000054606E0FFF736FA401B022801D903209D
:102A6000BDE66148006800F480700028F2D000BF25
:102A7000A068012808D15A489030006840F0010051
:102A80005749C1F8900021E0A06805280FD15448AB
:102A90009030006840F004005149C1F890000846A9
:102AA000D0F8900040F00100C1F890000EE04C48D2
:102AB0009030006820F001004949C1F890000846B4
:102AC000D0F8900020F00400C1F8900000BFA0688A
:102AD000A8B1FFF7F7F9054609E0FFF7F3F9401B46
:102AE00041F28831884202D9032078E625E03C484B
:102AF0009030006800F002000028EED013E0FFF7ED
:102B0000E1F9054608E0FFF7DDF9401B41F28831A5
:102B1000884201D9032062E631489030006800F015
:102B200002000028EFD1B8F1010F05D12C48806DCB
:102B300020F080502A49886500BF207800F02000EE
:102B4000202836D1A069D0B125489830006840F0DF
:102B500001002349C1F89800FFF7B4F9054606E0E3
:102B6000FFF7B0F9401B022801D9032037E61C48C3
:102B70009830006800F002000028F1D019E01848F1
:102B80009830006820F001001549C1F89800FFF75F
:102B900099F9054606E0FFF795F9401B022801D98F
:102BA00003201CE60E489830006800F00200002860
:102BB000F1D1E069002860D00948806800F00C007D
:102BC0000C287FD0E069022858D10548006820F021
:102BD000807003490860FFF775F905460DE00000B5
:102BE00000100240B003002000700040FFF76AF9B7
:102BF000401B022801D90320F1E54D48006800F090
:102C000000700028F2D1D4E90810401E41EA0011FA
:102C1000A06A41EA0021208E0122C2EB500041EA65
:102C200040513420005DC2EB500041EA40612C204D
:102C3000005D41EAC0603E49C9683E4A1140084310
:102C40003B49C8600846006840F08070086008464C
:102C5000C06840F08070C860FFF734F9054606E0B0
:102C6000FFF730F9401B022801D90320B7E53048AF
:102C7000006800F000700028F2D056E02C48006890
:102C800020F080702A4908600846C06820F00300E0
:102C9000C8600846C068284908402549C860FFF751
:102CA00011F9054607E00DE0FFF70CF9401B02287B
:102CB00001D9032093E51E48006800F00070002849
:102CC000F2D132E0E069012800D188E51848C668F1
:102CD00006F00301206A814225D106F0F001606A06
:102CE000401EB1EB001F1ED106F4FE41A06AB1EBFD
:102CF000002F18D106F078412C20005DB1EBC06F99
:102D000011D106F4C001208E0122C2EB5000B1EBBC
:102D1000405F08D106F0C0613420005DC2EB500076
:102D2000B1EB406F01D0012059E5002057E50000CC
:102D3000001002400C809F01FFFFEEFE70B50446BC
:102D40000CB9012070BD606A38B96068B0F5827F47
:102D500000D105E00021E16102E000212161616113
:102D60000021A16294F85D0028B9002084F85C007D
:102D7000204600F061F8022084F85D0020680068B9
:102D800020F0400021680860E068B0F5E06F01D9EC
:102D9000002501E04FF48055E068B0F5706F05D074
:102DA000E068B0F5E06F01D00021A162A08800F4D6
:102DB0008270218901F404410843217C01F0020161
:102DC0000843217D01F001010843218B01F40071CA
:102DD0000843217F01F0380108432021095D01F0FB
:102DE00080010843218D01F40051084321680860E7
:102DF0000421A06901EA104094F8241001F01001A8
:102E0000084394F8341001F008010843A18901F443
:102E10007061084305F480510843216848602068C8
:102E2000C06920F400602168C8610020206601208C
:102E300084F85D00002085E710B586B004461421B3
:102E400001A8FDF7ECF917492068884228D100BF96
:102E50001548806D40F48040134988650846806DB0
:102E600000F48040009000BF00BF00BF0846C06C67
:102E700040F00200C8640846C06C00F002000090F8
:102E800000BF00BF4FF420400190022002900020BC
:102E9000039004900520059001A90448FEF714FF53
:102EA00006B010BD00380040001002400004004889
:102EB0002DE9F84F0446884616461D464FF0000A95
:102EC00000BF94F85C00012802D10220BDE8F88F11
:102ED000012084F85C0000BFFEF7F4FF0746B1460E
:102EE00094F85D00012802D04FF0020ACBE0B8F15F
:102EF000000F00D016B94FF0010AC4E0032084F897
:102F00005D0000202066C4F83880A687E68720642C
:102F1000A4F84400A4F846002065E064A068B0F579
:102F2000004F0BD12068006820F040002168086045
:102F30002068006840F480402168086020680068CC
:102F400000F04000402805D02068006840F04000B4
:102F500021680860E068B0F5E06F2FD9606810B1B3
:102F6000B9F1010F09D1A06B00882168C860A06B7E
:102F7000801CA063E08F401EE0871BE02068806813
:102F800000F0020002280AD1A06B00882168C86006
:102F9000A06B801CA063E08F401EE0870AE0FEF774
:102FA00091FFC01BA84201D3681C00B915B94FF0AE
:102FB000030A68E0E08F0028E0D14AE0606810B1C1
:102FC000B9F1010F17D1E08F01280AD9A06B008851
:102FD0002168C860A06B801CA063E08F801EE08722
:102FE00009E0A06B007821680873A06B401CA06307
:102FF000E08F401EE08729E02068806800F0020032
:10300000022818D1E08F01280AD9A06B0088216816
:10301000C860A06B801CA063E08F801EE08715E075
:10302000A06B007821680873A06B401CA063E08F40
:10303000401EE0870AE0FEF745FFC01BA84201D30F
:10304000681C00B915B94FF0030A1CE0E08F002896
:10305000D2D13A462946204601F04CFC08B1202046
:103060002066A06850B900BF002000902068C068AA
:10307000009020688068009000BF00BF206E08B1FB
:103080004FF0010A00BF012084F85D0000BF00205E
:1030900084F85C0000BF504618E770B5044625462A
:1030A000681EB0F1807F01D301200FE0681E4FF051
:1030B000E02148610F214FF0FF3001F04FFE00206A
:1030C0004FF0E021886107200861002070BD704743
:1030D00070477047704770477047000030B5024630
:1030E0000B4600BF92F83C00012801D1022030BD00
:1030F000012082F83C0000BF022082F83D001068E9
:103100004168106884681D4D1068A84203D01C4DAA
:103110001068A84203D121F470015868014319488E
:1031200001401868014310684160144D1068A842BE
:1031300013D01068B0F1804F0FD0134D1068A84223
:103140000BD0124D1068A84207D00D4D1068A84250
:1031500003D00F4D1068A84205D124F08004986870
:10316000044310688460012082F83D0000BF002005
:1031700082F83C0000BF00BFB9E70000002C01400E
:10318000003401408FFFFFFD0004004000080040B4
:1031900000400140704710B504460CB9012010BD35
:1031A00094F83D0028B9002084F83C00204600F047
:1031B00029F8022084F83D00211D206801F016FD49
:1031C000012084F8480000BF84F83E0001213F2020
:1031D0000155402001554120015542200155432011
:1031E000015500BF00BF012084F84400452001556F
:1031F000462001554720015500BF012084F83D00BD
:103200000020CCE738B504461A492068884216D118
:1032100000BF1948806D40F00400174988650846D2
:10322000806D00F00400009000BF00BF002202216A
:103230001E20FEF7CBFE1E20FEF7B4FE19E00F495C
:103240002068884215D100BF0B48806D40F0100007
:10325000094988650846806D00F01000009000BFA5
:1032600000BF002211463620FEF7B0FE3620FEF7E2
:1032700099FE38BD000800400010024000100040D8
:10328000014691F83D00012801D00120704702203D
:1032900081F83D000868C06840F001000B68D86004
:1032A000184B0868984213D00868B0F1804F0FD0CF
:1032B000154B086898420BD0144B0868984207D009
:1032C000134B0868984203D0124B0868984210D1FB
:1032D00008688068104B00EA0302062A0FD0B2F596
:1032E000803F0CD00868006840F001000B6818604F
:1032F00005E00868006840F001000B6818600020D5
:10330000C4E70000002C0140000400400008004019
:103310000034014000400140070001002DE9F04168
:1033200004460D46002700BF94F83C00012802D156
:103330000220BDE8F081012084F83C0000BF02209B
:1033400084F83D00206886683F48064026F47F46A2
:10335000206886602868702824D00CDC00F00F01FB
:10336000002964D10011072861D2DFE800F053542E
:10337000555649353F00354A811A90424FD009DCF5
:10338000B0F5805F0DD0B0F5005F18D0B0F1101F20
:103390004DD143E0102943D0202942D0502946D1B5
:1033A00040E046E0D5E902136A68206801F08DFC30
:1033B0002068866846F077062068866039E0D5E99F
:1033C00002136A68206801F080FC2068806840F47D
:1033D0008040216888602CE0EA686968206801F014
:1033E0008BFC5021206801F07BFC22E0EA686968D0
:1033F000206801F094FC6021206801F071FC18E065
:10340000EA686968206801F077FC4021206801F0D3
:1034100067FC0EE000BF00BF00BF00BF00BF00BFE1
:1034200000BF00BF2968206801F05AFC01E00127B5
:1034300000BF00BF012084F83D0000BF002084F8D9
:103440003C0000BF384674E788FFCEFF2000100024
:103450002DE9F04104460D4614B90120BDE8F08184
:1034600094F83D0028B9002084F83C00204600F084
:1034700055F8022084F83D002068806826490840FD
:1034800021688860211D206801F0B0FB2068D0F819
:103490000880206886692068076A286840EA08086A
:1034A00040F203308643A969A86840EA0120064338
:1034B00040F60C4086434FF2F0008643E969E86825
:1034C00040EA0120064328690001296A40EA0130E8
:1034D000064327F0220727F088076969686840EAF1
:1034E000011007432068C0F80880206886612068C2
:1034F0000762012084F8480084F83E0001213F2043
:103500000155012084F8440045200155012084F82C
:103510003D000020A2E70000F8BFFEFF10B586B016
:103520000446142101A8FCF77AFE1B492068884252
:103530002FD100BF1948806D40F0020017498865FF
:103540000846806D00F00200009000BF00BF00BF81
:103550000846C06C40F00200C8640846C06C00F029
:103560000200009000BF00BF3020019002200290B6
:103570000020039004900220059001A90848FEF75E
:10358000A3FB002201211D20FEF720FD1D20FEF7D8
:1035900009FD06B010BD000000040040001002400C
:1035A000000400482DE9F04304460D4694F83E60BF
:1035B0003F20075D94F84480452010F804906DB9D1
:1035C000012E02D1B8F1010F02D00120BDE8F08335
:1035D000022084F83E0084F8440025E0042D0CD13C
:1035E000012F02D1B9F1010F01D00120EEE7022134
:1035F0003F2001554520015516E0012E07D1012F2E
:1036000005D1B8F1010F02D1B9F1010F01D00120AC
:10361000DCE7022084F83E0002213F200155022011
:1036200084F844004520015515B1042D0CD105E066
:1036300001220021206801F037FB10E00122042163
:10364000206801F031FB0AE001220021206801F02E
:103650002BFB01220421206801F026FB00BF00BFE4
:103660002068006840F00100216808600020ADE794
:103670002DE9F04304460D4694F83E603F20075D77
:1036800094F84480452010F804906DB9012E02D1C1
:10369000B8F1010F02D00120BDE8F083022084F8C8
:1036A0003E0084F8440025E0042D0CD1012F02D106
:1036B000B9F1010F01D00120EEE702213F200155B1
:1036C0004520015516E0012E07D1012F05D1B8F193
:1036D000010F02D1B9F1010F01D00120DCE7022076
:1036E00084F83E0002213F200155022084F8440066
:1036F0004520015515B1042D18D10BE00122002100
:10370000206801F0D1FA2068C06840F0020021680A
:10371000C86022E001220421206801F0C5FA206877
:10372000C06840F004002168C86016E00122002152
:10373000206801F0B9FA01220421206801F0B4FAEE
:103740002068C06840F002002168C8602068C06836
:1037500040F004002168C86000BF00BF2068006816
:1037600040F0010021680860002095E738B5044664
:1037700046492068884242D1207F012840D12068F4
:10378000006800F0100010287ED141480078012820
:103790007AD1404840490968455C002D18DD681E13
:1037A000C5B23C483C49096845544FF61F003949A9
:1037B000394B00901B68C95C3031CAB23749364B6F
:1037C0001B6851F823000023CF2100F027FA16E0F0
:1037D00009213048304A126881544FF61F002D49A4
:1037E0002D4B00901B68C95C3031CAB22B492A4B63
:1037F0001B6851F823000023CF2100F00FFA43E0AB
:10380000207F022840D12068006800F010001028B6
:103810003AD01F480078012836D11E481E49096851
:10382000455C092D18DA681CC5B21A481A4909689E
:1038300045544FF61F001749174B00901B68C95C91
:103840003031CAB21549144B1B6851F823000023CC
:10385000CF2100F0E3F916E000210E480E4A12686D
:1038600081544FF61F000B490B4B00901B68C95C3D
:103870003031CAB20949084B1B6851F823000023B4
:10388000CF2100F0CBF900BF38BD0000000400409C
:103890000400002005000020000000201800002087
:1038A00010B5044620680069C0F34000D8B1206814
:1038B000C068C0F34000B0B16FF002002168086139
:1038C000012020772068806900F0030018B12046AD
:1038D000FFF74CFF05E0204600F002F9204600F01B
:1038E00000F90020207720680069C0F38000D8B17B
:1038F0002068C068C0F38000B0B16FF00400216898
:103900000861022020772068806900F4407018B1B7
:103910002046FFF72BFF05E0204600F0E1F82046A7
:1039200000F0DFF80020207720680069C0F3C000B5
:10393000D8B12068C068C0F3C000B0B16FF0080013
:1039400021680861042020772068C06900F0030026
:1039500018B12046FFF70AFF05E0204600F0C0F846
:10396000204600F0BEF80020207720680069C0F3F0
:103970000010D8B12068C068C0F30010B0B16FF07B
:10398000100021680861082020772068C06900F4D1
:10399000407018B12046FFF7E9FE05E0204600F030
:1039A0009FF8204600F09DF80020207720680069ED
:1039B00000F0010058B12068C06800F0010030B18B
:1039C0006FF0010021680861204600F08BF8206844
:1039D0000069C0F3C01058B12068C068C0F3C010BF
:1039E00030B16FF08000216808612046FFF770FB5E
:1039F00020680069C0F3002058B12068C068C0F397
:103A0000C01030B16FF48070216808612046FFF764
:103A10005EFB20680069C0F3801058B12068C06860
:103A2000C0F3801030B16FF040002168086120467B
:103A300000F0A4F820680069C0F3401058B1206875
:103A4000C068C0F3401030B16FF0200021680861F9
:103A50002046FFF73EFB20680069C0F3005058B1D4
:103A60002068C068C0F3005030B16FF48010216846
:103A700008612046FFF72FFB20680069C0F3405023
:103A800058B12068C068C0F3405030B16FF40010E6
:103A9000216808612046FFF71DFB20680069C0F31C
:103AA000805058B12068C068C0F3805030B16FF4C6
:103AB0008000216808612046FFF70EFB206800693E
:103AC000C0F3C05058B12068C068C0F3C05030B1D6
:103AD0006FF40000216808612046FFF75BFB10BD12
:103AE0007047704710B52DED028B04461E492068C3
:103AF000884201D101F094FB1C49206888422FD1F3
:103B00009FED1B0AB0EE408A9FED190AF0EE408A45
:103B1000184890ED000AB0EE408A174890ED000A70
:103B2000F0EE408A4FF4FC630422B0EE480A07210D
:103B3000172000F04DF94FF6E0730422B0EE680A4A
:103B40004721172000F044F968EE880AB0EE600AB9
:103B500048F21F4304228721172000F039F900BFE3
:103B6000BDEC028B10BD00000008004000100040BA
:103B700000000000380000203C000020704700BF1B
:103B8000FEE72DE9F04107460C4615461E462A2061
:103B900000F0DCF9384600F0A5F9284600F0A2F95B
:103BA0002B2000F0D3F9204600F09CF9304600F0BD
:103BB00099F92C2000F0CAF9BDE8F08170B50646ED
:103BC000EF231A4600210846FFF7DBFF002408E038
:103BD000002503E0304600F085F96D1CF02DF9D387
:103BE000641CF02CF4D370BD70B504460D46164627
:103BF0002B46224629462046FFF7C3FF304600F0F9
:103C000071F970BD01B54FF47A730122694602481B
:103C1000FFF74EF908BD0000000500202DE9F84F20
:103C200005460F4616469A46DDF828B00095E02D69
:103C300001D8E02F01D9BDE8F88FA6F12000C6B267
:103C400007F10F03EA1D39462846FFF79AFFBAF13C
:103C5000000F25D1002420E004EB0610214911F8C3
:103C600000904FF0000811E009F0010018B158462B
:103C700000F038F903E01C48006800F033F94FEA1F
:103C800069096D1C08F1010000F0FF08B8F1080F88
:103C9000EADB009D7F1C601CC4B2102CDCDB1FE043
:103CA00000241BE004EB06100E4911F800904FF0C1
:103CB00000080EE009F0010028B1391905EB0800F1
:103CC0005A46FFF791FF4FEA690908F1010000F039
:103CD000FF08B8F1080FEDDB601CC4B2102CE1DB6B
:103CE00000BFA8E7C0540008A40300202DE9FC5F32
:103CF00005460F4616469A4600200090AB46D02D4A
:103D000001D8B02F01D9BDE8FC9FA6F12000C6B2B2
:103D100007F13F0305F11F0239462846FFF731FF3F
:103D2000BAF1000F31D100242CE00020019023E0F3
:103D3000009800EB0620244911F800904FF000088D
:103D40000FE009F0010018B10C9800F0CBF803E087
:103D50001E48006800F0C6F84FEA69096D1C08F1BA
:103D60000108B8F1080FECD30098401CC0B20090D5
:103D70000198401CC0B2019001980428D8DB5D4630
:103D80007F1C641C402CD0D31CE0002418E004EB02
:103D900086100D4911F800904FF000080CE009F072
:103DA000010028B1391905EB08000C9AFFF71CFF38
:103DB0004FEA690908F10108B8F1200FEFD3641C3C
:103DC000402CE4D300BF9EE7B05A0008A4030020B3
:103DD0002DE9F0472DED028B82B006468946B0EE04
:103DE000408A14461F469FED1E0A28EE000ABCEECC
:103DF000C00A10EE10AA00252AE0601B401EC1B2C6
:103E00000A2001F06BFABAFBF0F00A21B0FBF1F2E4
:103E100001FB1208A01EA8420DD1A11E202202FB08
:103E2000016000232E2249460097FFF75FFF681CC0
:103E3000C5B2601CC4B208F13001CAB2202101FB36
:103E40000560002349460097FFF750FF681CC5B284
:103E5000A542D2DB02B0BDEC028BBDE8F0870000CA
:103E60000000C842F8B505460E4614461F4615E048
:103E7000E02D01D900251036E02E06D90020054698
:103E800006464FF47840FFF799FE0097227800230A
:103E900031462846FFF7C2FE0835641C207800280A
:103EA000E6D1F8BDF8B505460E4614461F4615E0A6
:103EB000D02D01D900254036B02E06D90020054668
:103EC00006464FF47840FFF779FE009722780023EA
:103ED00031462846FFF70AFF2035641C2078002869
:103EE000E6D1F8BD10B5044600224FF480710A48AF
:103EF000FDF7E2FF012280210748FDF7DDFFC4F353
:103F00000720FFF77FFEE0B2FFF77CFE01221102DF
:103F10000148FDF7D1FF10BD0008004810B5044668
:103F200000224FF480710848FDF7C6FF012280216E
:103F30000548FDF7C1FF2046FFF764FE012211028C
:103F40000148FDF7B9FF10BD0008004810B5044650
:103F500000224FF480710848FDF7AEFF0022802157
:103F60000548FDF7A9FF2046FFF74CFE012211028C
:103F70000148FDF7A1FF10BD000800488168024A12
:103F80001140491C81607047C0FFFF7F014688686F
:103F900000F01F007047024602F1600000EB810351
:103FA000186800F0F840704701468868C0F3C00008
:103FB000704701468868C0F3400070470146886832
:103FC00000F0010070470146886800F0010070476A
:103FD00001468868C0F30070704701468868C0F3E6
:103FE0008000704701468868C0F380007047014632
:103FF000C86800F4406008B9012070470020FCE761
:104000008168024A1140091D81607047C0FFFF7F2F
:1040100070B500F11404C1F3406504EB85031C681E
:10402000C1F304560725B540AC43C1F3045502FA69
:1040300005F52C431C6070BD826822F0E0720A43D3
:104040008260704710B500F1600404EB81031C68C6
:1040500024F0004414431C6010BD426922F0004269
:104060000A4342617047000010B5012211027948ED
:10407000FDF722FF012240217648FDF71DFF0122B6
:1040800080217448FDF718FF002240217148FDF798
:1040900013FF1420FDF704FE012240216D48FDF7B7
:1040A0000BFF6420FDF7FCFD012251026948FDF77A
:1040B00003FF1120FFF74AFF7820FDF7F1FD3620BE
:1040C000FFF744FF0020FFF729FF3A20FFF73EFFEC
:1040D0005520FFF723FFB220FFF738FF0C20FFF732
:1040E0001DFF0C20FFF71AFF0020FFF717FF3320FA
:1040F000FFF714FF3320FFF711FFB720FFF726FF6C
:104100003520FFF70BFFBB20FFF720FF3220FFF722
:1041100005FFC220FFF71AFF0120FFF7FFFEC320B3
:10412000FFF714FF1920FFF7F9FEC420FFF70EFF79
:104130002020FFF7F3FEC620FFF708FF0F20FFF750
:10414000EDFED020FFF702FFA420FFF7E7FEA1203D
:10415000FFF7E4FEE020FFF7F9FED020FFF7DEFED8
:104160000820FFF7DBFE0E20FFF7D8FE0920FFF73F
:10417000D5FE0920FFF7D2FE0520FFF7CFFE312044
:10418000FFF7CCFE3320FFF7C9FE4820FFF7C6FE3D
:104190001720FFF7C3FE1420FFF7C0FE1520FFF71E
:1041A000BDFE3120FFF7BAFE3420FFF7B7FEE12055
:1041B000FFF7CCFED020FFF7B1FE0820FFF7AEFEE0
:1041C0000E20FFF7ABFE0920FFF7A8FE0920FFF73E
:1041D000A5FE1520FFF7A2FE3120FFF79FFE33203A
:1041E000FFF79CFE4820FFF799FE1720FFF796FE89
:1041F0001420FFF793FE1520FFF790FE3120FFF704
:104200008DFE3420FFF78AFE2120FFF79FFE2A2033
:10421000FFF79CFE0020FFF781FE0020FFF77EFEE7
:104220000020FFF77BFEEF20FFF778FE2B20FFF743
:104230008DFE0020FFF772FE0020FFF76FFE0020CA
:10424000FFF76CFEEF20FFF769FE2920FFF77EFEE7
:1042500010BD00000008004800B58BB00020089099
:1042600009900A9020216846FBF7D9FF4FF0A04043
:10427000244908604FF440304860002121488160A3
:10428000C1600161416104218161002101774177B1
:1042900001210162002180F82410C162016380F8CD
:1042A0003810C16380F84010FCF7C4FF08B1FCF778
:1042B000BCFB0020089008A91248FCF7ADFC08B12F
:1042C000FCF7B3FB104800900620019004200290F8
:1042D0007F2003900420049000200590694609483F
:1042E000FCF720FD08B1FCF7A0FB7F210548FCF797
:1042F0003BFC0448FDF700FA7F210248FCF734FC40
:104300000BB000BD140400200200300400B589B0D9
:10431000202101A8FBF783FF1B481C4908604FF4CC
:1043200040304860002119488160C16001614161ED
:10433000042181610021017741770121016200217F
:1043400080F82410C162016380F83810C16380F8DE
:104350004010FCF76FFF08B1FCF767FB0C480190B9
:1043600006200290002003907F20049004200590F6
:104370000020069001A90548FCF7D4FC08B1FCF721
:1043800054FB09B000BD0000000100508004002073
:104390000400600810B52DED108B90B0302104A8FA
:1043A000FBF73DFF49484A4908600846FDF7C4FB52
:1043B00008B1FCF73AFB0220049000208DF81400AD
:1043C0008DF81500069007900890022009900120B2
:1043D0000A9000200B90002204A93D48FDF740FA06
:1043E00008B1FCF722FB102204A93948FDF738FA7E
:1043F00008B1FCF71AFB3749C878FCF7B4F841EC70
:104400001E0B9FED350B53EC102BFBF7BAFF41EC65
:104410001C0B30498878FCF7A6F841EC1F0B9FED88
:10442000300B53EC102BFBF7ACFFCDE90001294911
:104430004978284A127802EB820201EB4200FCF72D
:1044400081F841EC1E0B9DED000B53EC102BFBF79C
:10445000F1FE41EC1D0B53EC1C2BFBF7EBFE41EC8A
:104460001B0B9FED210B53EC102BFBF7FCFF41ECDA
:104470001A0B9FED1F0B53EC102BFBF77CFF41EC4D
:10448000190B9FED1D0B53EC102BFBF77AFF9FEDE3
:104490001C0B53EC102BCDE902019DED020B51ECEE
:1044A000100BFBF7E0FF41EC180BFCF769F8044632
:1044B0002346002211460648FDF792FB00210448DE
:1044C000FDF7AEFB10B0BDEC108B10BD0008005026
:1044D000EC040020050000207B14AE47E17A843F05
:1044E0009A9999999999B93F0000000000002040DD
:1044F0005AF5B9DA8AFDC53F000000000000B0405F
:104500006666666666660A4000B587B0142102A832
:10451000FBF785FE00BF3548C06C40F020003349F2
:10452000C8640846C06C00F02000019000BF00BFC6
:1045300000BF0846C06C40F00100C8640846C06C6B
:1045400000F00100019000BF00BF00BF0846C06C32
:1045500040F00200C8640846C06C00F00200019000
:1045600000BF00BF00BF0846C06C40F00400C86434
:104570000846C06C00F00400019000BF00BF01229B
:1045800011461B48FDF798FC00224FF47071194842
:10459000FDF792FC0120029003900020049005900A
:1045A00002A91348FDF790FB02200290002003901F
:1045B0000120049002A90E48FDF786FB4FF47070AD
:1045C00002900120039000200490059002A9094860
:1045D000FDF77AFB4020029000200390049002A98E
:1045E0000548FDF771FB07B000BD00000010024058
:1045F00000140048000800480004004810B51248A4
:10460000124908604FF48270486000210F488160B1
:104610004FF4E061C1600021016141614FF400711C
:1046200081611021C1610021016241628162072123
:10463000C1620021016308214163FEF77FFB08B1DD
:10464000FCF7F3F910BD0000003800400005002021
:1046500000B58DB0242104A8FBF7E1FD00200190F6
:10466000029003901F482049086003204860002101
:104670001D4881601421C160002101618161032016
:10468000049000200590012006900020079008204B
:1046900008900220099001200A9000200B90082029
:1046A0000C9004A91048FEF7D3FE08B1FCF7BDF941
:1046B00000200190039001A90B48FEF70FFD08B1FF
:1046C000FCF7B3F96FF001000749096808613C2164
:1046D0000548FEF7CDFF3C210348FEF763FF0DB010
:1046E00000BD0000000400406405002000B587B054
:1046F0000020039004900590069000900190029095
:1047000016481749086044F29F1048600021144879
:1047100081603121C1600021016180218161FEF74A
:104720003AFD08B1FCF781F94FF48050039003A9DA
:104730000B48FEF7F3FD08B1FCF777F90020009075
:10474000029069460648FEF7C9FC08B1FCF76DF90E
:104750000348FEF795FD07B000BD000000080040CB
:10476000B00500200EB50020009001900290104886
:104770001049086044F29F10486000210D48816094
:1047800041F28731C16080218161FEF704FD08B1EB
:10479000FCF74BF900200090029069460548FEF7AF
:1047A0009DFC08B1FCF741F90248FEF769FD0EBD1A
:1047B00000100040FC05002000BFFEE700BFFEE740
:1047C0009FED120A124880ED000A9FED100A80ED5D
:1047D000010A9FED0E0A80ED020A9FED0C0A80EDA2
:1047E000030A9FED0A0A80ED080A9FED080A80ED92
:1047F000090A9FED080A80ED040AB6EE000A80ED72
:10480000050AB6EE000A80ED060A704700000000B7
:104810004806002000002042B0EE401A194880ED02
:10482000001AC0ED010A90ED000AD0ED011A30EE39
:10483000610A80ED020A90ED090AD0ED021A30EE0D
:10484000210A80ED090A90ED040AD0ED021A20EE4B
:10485000210AD0ED051A90ED092A01EE820AD0ED69
:10486000021A90ED032A71EEC21A90ED062A02EEAA
:10487000210A80ED070A90ED020A80ED030A90ED0F
:10488000070A7047480600207047000070B5164DB3
:10489000ED6805F00304144DED68C5F303156B1CBA
:1048A000022C0CD0032C09D1104DB5FBF3F50E4EA4
:1048B000F668C6F3062605FB06F10AE000BF0C4DBC
:1048C000B5FBF3F5084EF668C6F3062605FB06F1C0
:1048D00000BF00BF044DED68C5F341656D1C6A0063
:1048E000B1FBF2F070BD00000010024000127A002F
:1048F0000024F400F8B504460E461546334600225F
:104900004FF4C0512046009500F026F828B1206EE3
:1049100040F0200020660320F8BD334600228021AD
:104920002046009500F094F828B1206E40F0200059
:1049300020660320F0E7334600224FF4C061204692
:10494000009500F009F828B1206E40F020002066A4
:104950000320E1E70020DFE72DE9FC5F04460D4678
:1049600016461F46DDF8309000200090FDF7AAFAA9
:10497000A0EB0900A7EB0008FDF7A4FA8246206827
:1049800000F10C0B31480068C0EBC00000EB800068
:10499000000D00FB08F0019050E0B5F5C06F05D1A7
:1049A00026B99BF8000000909DF80000781C0028B4
:1049B00044D0FDF787FAA0EB0A00404502D2B8F1D7
:1049C000000F34D12068406820F0E0002168486082
:1049D0006068B0F5827F0DD1A068B0F5004F03D0BC
:1049E000A068B0F5806F05D12068006820F0400015
:1049F00021680860A06AB0F5005F0DD100BF206893
:104A0000006820F40050216808602068006840F4C5
:104A100000502168086000BF012084F85D0000BFDD
:104A2000002084F85C0000BF0320BDE8FC9F0198D3
:104A300008B94FF000080198401E01902068806876
:104A40002840B042A9D10020EFE70000B8030020C1
:104A50002DE9F84F04460D4690461E46DDF8289095
:104A6000FDF730FAA0EB0900371AFDF72BFA824662
:104A70002C480068C0F3CB307843009045E0701CB0
:104A8000002842D0FDF71EFAA0EB0A00B84200D27F
:104A9000A7BB2068406820F0E0002168486060689B
:104AA000B0F5827F0DD1A068B0F5004F03D0A068AB
:104AB000B0F5806F05D12068006820F040002168C3
:104AC0000860A06AB0F5005F0DD100BF20680068E3
:104AD00020F40050216808602068006840F400500D
:104AE0002168086000BF012084F85D0000BF00203D
:104AF00084F85C0000BF0320BDE8F88FFFE7009852
:104B000000B900270098401E009020688068284067
:104B1000A84201D1012000E000204045AFD1002093
:104B2000EAE70000B8030020704710B5FDF7D0F9A0
:104B300010BD00B593B0382105A8FBF770FB142118
:104B40006846FBF76CFB0020FDF792FA0220059007
:104B5000C00108904020099002200C9002210D9184
:104B600001210E9115210F910221109111911291A5
:104B700005A8FDF72FFE08B1FBF757FF0F200090A7
:104B800003200190002002900390049004216846C5
:104B9000FDF7BCFC08B1FBF748FF13B000BD0000F7
:104BA0000348006840F47000014908607047000045
:104BB00088ED00E010B50248FEF772FE10BD00005F
:104BC0006405002010B50248FEF76AFE10BD000023
:104BD000B005002010B50348FEF762FE0248FCF75E
:104BE00066FF10BDFC050020EC04002010B5026833
:104BF000264B98420BD0B0F1804F08D0244B9842FE
:104C000005D0244B984202D0234B984203D122F086
:104C100070024B681A431D4B984214D0B0F1804F7C
:104C200011D01B4B98420ED01A4B98420BD01A4B06
:104C3000984208D0194B984205D0194B984202D09F
:104C4000184B984203D122F44072CB681A4322F0E9
:104C500080034C6943EA040202608B68C3620B68FC
:104C600083620A4B98420BD00B4B984208D00B4BF7
:104C7000984205D00A4B984202D00A4B984201D183
:104C80000B6903630123436110BD0000002C014048
:104C90000004004000080040003401400040014092
:104CA000004401400048014030B501F01F050124D7
:104CB00004FA05F3046A9C430462046A01F01F05C8
:104CC00002FA05F52C43046230BD30B50C4681680C
:104CD00021F47F4142EA032525432943816030BD09
:104CE0000A468168034B194042F00703194381606B
:104CF000704700008FFFCFFF30B50B461446026AA5
:104D0000056A25F001050562816921F0F00141EA9B
:104D1000041122F00A021A438161026230BD30B5EB
:104D20000B461446056A25F0100505628169026A82
:104D300021F4704141EA043122F0A00242EA031258
:104D40008161026230BD00BFFEE7000002480068DA
:104D5000C0F30220704700000CED00E010B5002801
:104D600004DB0A07130E054A135406E00A07140E63
:104D7000034A00F00F031B1FD45410BD00E400E0F1
:104D800018ED00E002E008C8121F08C1002AFAD19D
:104D900070477047002001E001C1121F002AFBD1BB
:104DA0007047000010B5012300221049104800F0A0
:104DB00003FA104A03210E4800F0DAF80D4A0521E3
:104DC0000B4800F0D5F80A4800F014FA032300223B
:104DD00009490A4800F0F0F9094A0321074800F0A0
:104DE000C7F8064800F006FA10BD0000F5520008AA
:104DF000BC030020054E000805530008E80300200E
:104E00004D4F0008F8B50646304600F017FA074641
:104E1000032F02D0052F4DD14DE0474800780128DF
:104E200048D146480068072829DA4FF4FC60444915
:104E3000424B00901B68C95C3031CAB241493F4BBC
:104E40001B6851F823000023CF21FEF7E7FE3B4803
:104E50000068401C394908604FF61F003849374B3D
:104E600000901B68C95C3031CAB23649334B1B68AD
:104E700051F823000023CF21FEF7D0FE1AE04FF4B3
:104E8000FC6000902E48C0793030C2B20023CF21A0
:104E9000C720FEF7C3FE0020284908604FF61F0018
:104EA0000090274800783030C2B20023CF213F2045
:104EB000FEF7B4FE3DE02048007808B9012000E08C
:104EC00000201D49087000201C4908601A4800781D
:104ED00001280BD14FF61F000090194800783030A0
:104EE000C2B20023CF213F20FEF798FE124800787F
:104EF000F0B9002400BF18E04FF4FC6010490090A6
:104F0000095D3031CAB20F4951F824000023CF2186
:104F1000FEF784FE002500BF04E00948405D0A4911
:104F200048556D1C082DF8DB641C082CE4D300BF29
:104F300000BF00BFF8BD00000400002000000020FA
:104F400005000020180000200D00002070B5044668
:104F5000204600F073F90546032D04D101210348D2
:104F6000FCF7A0FF00BF00BF70BD000000140048A8
:104F700000F10C0343F82120704770B504462079F6
:104F8000A16888470546E07800F00700002802DDA8
:104F90002088401C2080E078B5EBD01F13D0E0784B
:104FA000C008401CE17860F3C501E170C1F3C200A4
:104FB00003280CDBE07865F3C710E070E07820F0A0
:104FC0003800E07003E0E07820F03800E070E0782E
:104FD00000F00700062876D2DFE800F00326529D95
:104FE000E7C6E078C0F38010E178B0EBD11F15D1AF
:104FF000A07820F0F000A070E06810B12046E168D1
:10500000884700202080A07820F00F00401CA0706E
:10501000E07820F00700401CE07004E0A07820F069
:10502000F0008030A070C5E0E078C0F38010E17837
:10503000B0EBD11F11D0A07820F0F0001030A0709C
:10504000206910B120462169884700202080E0783F
:1050500020F00700801CE07011E020883C280EDD65
:10506000A07820F0F0005030A070206A10B12046E7
:10507000216A8847E07820F00700401DE07099E041
:10508000E078C0F38010E178B0EBD11F1CD1A0789C
:1050900020F0F000A070E06810B12046E168884779
:1050A000A078401CA17860F30301A170606910B181
:1050B00020466169884700202080E07820F00700C2
:1050C000C01CE07026E070E02088142822DDA07863
:1050D00000F00F0001280AD1A07820F0F000303055
:1050E000A070A06990B12046A16988470EE0A07821
:1050F00000F00F00022809D1A07820F0F000403025
:10510000A070E06910B12046E1698847E07820F09E
:105110000700E0704EE0E078C0F38010E178B0EB7B
:10512000D11F19D0A07820F0F0001030A0702069B5
:1051300010B12046216988472088142807DA00200A
:105140002080E07820F00700801CE0700BE0E07821
:1051500020F00700E07006E02088142803DDE078E6
:1051600020F00700E07025E0E078C0F38010E178DF
:10517000B0EBD11F0AD1A07820F0F0006030A07011
:10518000606A88B12046616A88470DE0A07820F007
:10519000F0001030A070206910B1204621698847C6
:1051A000E07820F00700E07004E0E07820F00700ED
:1051B000E07000BF00BF70BD2DE9F04104460E460F
:1051C00017461D462C212046FBF729F8A07820F031
:1051D000F0008030A070A6602846A1688847E1787A
:1051E00060F3C711E170E07867F38610E070257115
:1051F000BDE8F08101460948026805E08A4202D113
:105200004FF0FF307047926A002AF7D103480068D8
:105210008862024801600020F4E70000A803002033
:1052200010B50548046803E02046FFF7A6FEA46A0F
:10523000002CF9D110BD0000A80300200146887899
:1052400000097047FCF750FEFFF773FCFFF7AAFD5B
:10525000FFF75AF9FFF700F8FFF79CF8FFF7CEF9D0
:10526000FFF7F6F9FFF752F8FFF740FAFFF77AFA7F
:10527000FFF7A6FAFEF7F8FE0020FEF79FFC0122DA
:1052800051021048FCF718FE00200F49086000F09A
:10529000ABF8002400BF04E00C48005D0C49085541
:1052A000641C082CF8D30BE0FBF708FC094880EDE0
:1052B000000AFBF7BDFB084880ED000A00F02AF861
:1052C000F2E7000000080048A403002005000020C9
:1052D0000D000020380000203C00002010B50246E0
:1052E000012000E050430B1EA1F10104E1B2F9D10D
:1052F00010BD000010B540210148FCF7CBFD10BDEA
:105300000004004810B502210148FCF7C3FD10BDA0
:105310000014004810B52DED0E8B9FED2B0AB0EE5A
:10532000408A00242949C878FBF71DF941EC1C0B81
:105330009FED270B53EC102BFBF723F841EC1A0BD6
:1053400022498878FBF70FF941EC1E0B9FED220BE9
:1053500053EC102BFBF715F841EC1C0B1B4949785B
:105360001A4A127802EB820201EB4200FBF7EAF8DC
:1053700041EC1D0B53EC1C2BFAF75CFF41EC1B0BB3
:1053800053EC1A2BFAF756FF41EC190BFBF711F906
:1053900008EE100A1248D0ED000AB0EE480AFFF7F6
:1053A0003BFABCEEC00A10EE104AB4F5805F01D3A0
:1053B00040F6FF742346002211460A48FCF710FC11
:1053C000BDEC0E8B10BD0000000000000D000020A1
:1053D0007B14AE47E17A843F9A9999999999B93F9C
:1053E00038000020EC04002038B54FF4FC632BA2F9
:1053F0000721B720FEF756FD4FF6E07328A247219C
:10540000B720FEF74FFD48F21F4326A28721B720A1
:10541000FEF748FD4FF6E07323A2CF211720FEF7D9
:1054200021FD4FF6E0731DA2CF216720FEF71AFD84
:105430004FF6E0731EA2CF217F20FEF713FD4FF63B
:10544000E07317A2CF210846FEF70CFD4FF4FC6075
:1054500000232E22CF2100904F20FEF7DFFB4FF4D8
:10546000FC6000232E22CF210090B720FEF7D6FB50
:10547000002400BF0EE04FF4FC600F490090095D6E
:105480003031CAB20D4951F824000023CF21FEF774
:10549000C5FB641C082CEED338BD0000560000008C
:1054A0004100000057000000565345540000000022
:1054B000495345540000000005000020180000205A
:1054C00000000000000000000000000000000000DC
:1054D0000000001818181818181000101800000004
:1054E0000000002C24242400000000000000000024
:1054F000000000006824FE2424247E2424000000F0
:10550000000000107C161216386848483E08080053
:10551000000000864B692E1008689492630000001A
:10552000000000003C26261C4E527362FE00000064
:10553000000000181818180000000000000000000B
:10554000000000201018080C0C0C0C080818302063
:10555000000000040810103020202030101808042B
:1055600000000010502C3856100000000000000011
:10557000000000000000181818FE1818180000009D
:1055800000000000000000000000001818100C00CF
:105590000000000000000000003C000000000000CF
:1055A00000000000000000000000001818000000CB
:1055B00000000040602030101008080404020000C1
:1055C000000000003C6642E2DACE42663C00000089
:1055D00000000000181E1210101010107E000000B5
:1055E000000000003C626060201008047E000000A3
:1055F000000000003E6060203C4040603E00000033
:1056000000000000303828242622FF20200000005F
:10561000000000007E0606067E4040603E0000005E
:1056200000000000780C06126E4242463C0000006A
:10563000000000007E406020301018080C000000C0
:10564000000000003C46426C386642423C000000CC
:10565000000000003C664242665840201E000000E8
:1056600000000000000018180000001818000000DA
:1056700000000000000018180000001818100C00AE
:1056800000000000000020180C0608306000000038
:1056900000000000000000007E007E00000000000E
:1056A0000000000000000C1820603008040000001A
:1056B0000000000C38606060180800080800000056
:1056C00000000038448282BBADA5A5F52903023C49
:1056D0000000000018382C2464467EC283000000BD
:1056E000000000003E6242623E4242423E00000034
:1056F0000000000078040202020202067C000000A2
:10570000000000003E6242C2C2C242621E000000AF
:10571000000000007E0606067E0606067E000000EB
:10572000000000007E0606067E0606060600000053
:105730000000000078060202734242467C0000002E
:1057400000000000424242427E42424242000000CB
:10575000000000007E181818181818187E000000A5
:10576000000000003E202020202020221E000000FB
:10577000000000004222120A0E1A322242000000EB
:105780000000000004040404040404047C0000007D
:10579000000000004666E6FADADA83838300000040
:1057A0000000000046464E4A5A52726262000000F3
:1057B000000000003C46C2C3C3C3C2463C00000018
:1057C000000000003E624242621E0202020000002F
:1057D000000000003C46C2C3C3C3C2463C18F000F0
:1057E000000000003E6646663E3626664600000023
:1057F000000000007C060206386040403E000000C9
:1058000000000000FE1818181818181818000000DA
:105810000000000042424242424242463C00000038
:105820000000000083C2424664242C3818000000A7
:105830000000000083838292DADA6E666600000060
:1058400000000000C2662C1818382466C30000004F
:10585000000000008342662C381818181800000059
:10586000000000007E402030180804067E00000082
:105870000000003808080808080808080808083860
:1058800000000002040408081010302060400000EE
:105890000000003C30303030303030303030303C80
:1058A000000000001838244600000000000000003E
:1058B000000000000000000000000000000000FFE9
:1058C00000000004080000000000000000000000CC
:1058D0000000000000003C60407C42625E0000006E
:1058E0000000000202023A46424242423E000000EC
:1058F0000000000000007804060206047C0000009E
:105900000000004040407C46424242665C0000008D
:105910000000000000003C46427E02067C000000C1
:10592000000000F01808087E0808080808000000B9
:10593000000000000000FC6642661A027CC2423C85
:105940000000000202023A46424242424200000087
:105950000000001818001E10101010107E0000002B
:105960000000002030003E20202020202020301E7B
:1059700000000006060646361E0E162646000000EB
:105980000000001E10101010101010107E000000FB
:105990000000000000006ED2D2D2D2D2D2000000AD
:1059A0000000000000003A4642424242420000002D
:1059B0000000000000003C4642C242463C0000009D
:1059C0000000000000003A46424242423E0202020B
:1059D0000000000000007C46424242665C404040BD
:1059E000000000000000764EC60606060600000015
:1059F0000000000000007C04043C60403E00000009
:105A00000000000008087F08080808087800000067
:105A10000000000000004242424242665C0000007A
:105A2000000000000000C24266242C18180000008C
:105A30000000000000008383DA5A7A6666000000E6
:105A4000000000000000466438183864460000007A
:105A5000000000000000C24266242C3818180C0711
:105A60000000000000007E60301808047E00000086
:105A700000000070180808080C0E080808081870C4
:105A80000000101010101010101010101010101036
:105A90000000000C18101010307010101010180CAE
:105AA00000000000000000008ED260000000000036
:105AB00000000000000000000000000000000000E6
:105AC00000000000000000000000000000000000D6
:105AD00000000000000000000000000000000000C6
